{
  "address": "0xA07d7e04b13f71e8E8a094B2477c405f255F750e",
  "abi": [
    {
      "inputs": [],
      "stateMutability": "nonpayable",
      "type": "constructor"
    },
    {
      "anonymous": false,
      "inputs": [
        {
          "indexed": true,
          "internalType": "address",
          "name": "owner",
          "type": "address"
        },
        {
          "indexed": true,
          "internalType": "address",
          "name": "spender",
          "type": "address"
        },
        {
          "indexed": false,
          "internalType": "uint256",
          "name": "value",
          "type": "uint256"
        }
      ],
      "name": "Approval",
      "type": "event"
    },
    {
      "anonymous": false,
      "inputs": [
        {
          "indexed": true,
          "internalType": "address",
          "name": "from",
          "type": "address"
        },
        {
          "indexed": true,
          "internalType": "address",
          "name": "to",
          "type": "address"
        },
        {
          "indexed": false,
          "internalType": "uint256",
          "name": "value",
          "type": "uint256"
        }
      ],
      "name": "Transfer",
      "type": "event"
    },
    {
      "inputs": [
        {
          "internalType": "address",
          "name": "owner",
          "type": "address"
        },
        {
          "internalType": "address",
          "name": "spender",
          "type": "address"
        }
      ],
      "name": "allowance",
      "outputs": [
        {
          "internalType": "uint256",
          "name": "",
          "type": "uint256"
        }
      ],
      "stateMutability": "view",
      "type": "function"
    },
    {
      "inputs": [
        {
          "internalType": "address",
          "name": "spender",
          "type": "address"
        },
        {
          "internalType": "uint256",
          "name": "value",
          "type": "uint256"
        }
      ],
      "name": "approve",
      "outputs": [
        {
          "internalType": "bool",
          "name": "",
          "type": "bool"
        }
      ],
      "stateMutability": "nonpayable",
      "type": "function"
    },
    {
      "inputs": [
        {
          "internalType": "address",
          "name": "account",
          "type": "address"
        }
      ],
      "name": "balanceOf",
      "outputs": [
        {
          "internalType": "uint256",
          "name": "",
          "type": "uint256"
        }
      ],
      "stateMutability": "view",
      "type": "function"
    },
    {
      "inputs": [
        {
          "internalType": "uint256",
          "name": "value",
          "type": "uint256"
        }
      ],
      "name": "burn",
      "outputs": [],
      "stateMutability": "nonpayable",
      "type": "function"
    },
    {
      "inputs": [
        {
          "internalType": "address",
          "name": "from",
          "type": "address"
        },
        {
          "internalType": "uint256",
          "name": "value",
          "type": "uint256"
        }
      ],
      "name": "burn",
      "outputs": [],
      "stateMutability": "nonpayable",
      "type": "function"
    },
    {
      "inputs": [],
      "name": "decimals",
      "outputs": [
        {
          "internalType": "uint8",
          "name": "",
          "type": "uint8"
        }
      ],
      "stateMutability": "view",
      "type": "function"
    },
    {
      "inputs": [
        {
          "internalType": "address",
          "name": "to",
          "type": "address"
        },
        {
          "internalType": "uint256",
          "name": "value",
          "type": "uint256"
        }
      ],
      "name": "mint",
      "outputs": [],
      "stateMutability": "nonpayable",
      "type": "function"
    },
    {
      "inputs": [],
      "name": "name",
      "outputs": [
        {
          "internalType": "string",
          "name": "",
          "type": "string"
        }
      ],
      "stateMutability": "view",
      "type": "function"
    },
    {
      "inputs": [],
      "name": "symbol",
      "outputs": [
        {
          "internalType": "string",
          "name": "",
          "type": "string"
        }
      ],
      "stateMutability": "view",
      "type": "function"
    },
    {
      "inputs": [],
      "name": "totalSupply",
      "outputs": [
        {
          "internalType": "uint256",
          "name": "",
          "type": "uint256"
        }
      ],
      "stateMutability": "view",
      "type": "function"
    },
    {
      "inputs": [
        {
          "internalType": "address",
          "name": "to",
          "type": "address"
        },
        {
          "internalType": "uint256",
          "name": "value",
          "type": "uint256"
        }
      ],
      "name": "transfer",
      "outputs": [
        {
          "internalType": "bool",
          "name": "",
          "type": "bool"
        }
      ],
      "stateMutability": "nonpayable",
      "type": "function"
    },
    {
      "inputs": [
        {
          "internalType": "address",
          "name": "from",
          "type": "address"
        },
        {
          "internalType": "address",
          "name": "to",
          "type": "address"
        },
        {
          "internalType": "uint256",
          "name": "value",
          "type": "uint256"
        }
      ],
      "name": "transferFrom",
      "outputs": [
        {
          "internalType": "bool",
          "name": "",
          "type": "bool"
        }
      ],
      "stateMutability": "nonpayable",
      "type": "function"
    }
  ],
  "transactionHash": "0xe945d4f6a5a804ccc2b16cc025b7ac6d80b3d41a0e81eef172ff610f01f3b739",
  "args": [],
  "numDeployments": 1,
  "solcInputHash": "0b75bd8b882fed2df7bb30f36464ecdd",
  "bytecode": "0x60806040523480156200001157600080fd5b506040805180820190915260098152682ba9ac902a37b5b2b760b91b602082015260009062000041908262000129565b5060408051808201909152600381526257535960e81b60208201526001906200006b908262000129565b506002805460ff191660121790556000600355620001f5565b634e487b7160e01b600052604160045260246000fd5b600181811c90821680620000af57607f821691505b602082108103620000d057634e487b7160e01b600052602260045260246000fd5b50919050565b601f8211156200012457600081815260208120601f850160051c81016020861015620000ff5750805b601f850160051c820191505b8181101562000120578281556001016200010b565b5050505b505050565b81516001600160401b0381111562000145576200014562000084565b6200015d816200015684546200009a565b84620000d6565b602080601f8311600181146200019557600084156200017c5750858301515b600019600386901b1c1916600185901b17855562000120565b600085815260208120601f198616915b82811015620001c657888601518255948401946001909101908401620001a5565b5085821015620001e55787850151600019600388901b60f8161c191681555b5050505050600190811b01905550565b610b9a80620002056000396000f3fe608060405234801561001057600080fd5b50600436106100b45760003560e01c806342966c681161007157806342966c681461014957806370a082311461015c57806395d89b41146101855780639dc29fac1461018d578063a9059cbb146101a0578063dd62ed3e146101b357600080fd5b806306fdde03146100b9578063095ea7b3146100d757806318160ddd146100fa57806323b872dd1461010c578063313ce5671461011f57806340c10f1914610134575b600080fd5b6100c16101ec565b6040516100ce919061090b565b60405180910390f35b6100ea6100e5366004610975565b61027e565b60405190151581526020016100ce565b6003545b6040519081526020016100ce565b6100ea61011a36600461099f565b61034c565b60025460405160ff90911681526020016100ce565b610147610142366004610975565b61058c565b005b6101476101573660046109db565b61065a565b6100fe61016a3660046109f4565b6001600160a01b031660009081526004602052604090205490565b6100c16106ef565b61014761019b366004610975565b6106fe565b6100ea6101ae366004610975565b610808565b6100fe6101c1366004610a16565b6001600160a01b03918216600090815260056020908152604080832093909416825291909152205490565b6060600080546101fb90610a49565b80601f016020809104026020016040519081016040528092919081815260200182805461022790610a49565b80156102745780601f1061024957610100808354040283529160200191610274565b820191906000526020600020905b81548152906001019060200180831161025757829003601f168201915b5050505050905090565b60006001600160a01b0383166102e65760405162461bcd60e51b815260206004820152602260248201527f45524332303a20617070726f766520746f20746865207a65726f206164647265604482015261737360f01b60648201526084015b60405180910390fd5b3360008181526005602090815260408083206001600160a01b03881680855290835292819020869055518581529192917f8c5be1e5ebec7d5bd14f71427d1e84f3dd0314c0f7b2291e5b200ac8c7c3b92591015b60405180910390a35060015b92915050565b60006001600160a01b0384166103b25760405162461bcd60e51b815260206004820152602560248201527f45524332303a207472616e736665722066726f6d20746865207a65726f206164604482015264647265737360d81b60648201526084016102dd565b6001600160a01b0383166103d85760405162461bcd60e51b81526004016102dd90610a83565b6001600160a01b0384166000908152600460205260409020548211156104405760405162461bcd60e51b815260206004820152601b60248201527f45524332303a20696e73756666696369656e742062616c616e6365000000000060448201526064016102dd565b6001600160a01b03841660009081526005602090815260408083203384529091529020548211156104b35760405162461bcd60e51b815260206004820152601d60248201527f45524332303a20696e73756666696369656e7420616c6c6f77616e636500000060448201526064016102dd565b6001600160a01b038416600090815260046020526040812080548492906104db908490610adc565b90915550506001600160a01b03831660009081526004602052604081208054849290610508908490610aef565b90915550506001600160a01b038416600090815260056020908152604080832033845290915281208054849290610540908490610adc565b92505081905550826001600160a01b0316846001600160a01b0316600080516020610b458339815191528460405161057a91815260200190565b60405180910390a35060019392505050565b6001600160a01b0382166105e25760405162461bcd60e51b815260206004820152601f60248201527f45524332303a206d696e7420746f20746865207a65726f20616464726573730060448201526064016102dd565b80600360008282546105f49190610aef565b90915550506001600160a01b03821660009081526004602052604081208054839290610621908490610aef565b90915550506040518181526001600160a01b03831690600090600080516020610b45833981519152906020015b60405180910390a35050565b336000908152600460205260409020548111156106895760405162461bcd60e51b81526004016102dd90610b02565b33600090815260046020526040812080548392906106a8908490610adc565b9250508190555080600360008282546106c19190610adc565b90915550506040518181526000903390600080516020610b458339815191529060200160405180910390a350565b6060600180546101fb90610a49565b6001600160a01b03821661075e5760405162461bcd60e51b815260206004820152602160248201527f45524332303a206275726e2066726f6d20746865207a65726f206164647265736044820152607360f81b60648201526084016102dd565b6001600160a01b0382166000908152600460205260409020548111156107965760405162461bcd60e51b81526004016102dd90610b02565b6001600160a01b038216600090815260046020526040812080548392906107be908490610adc565b9250508190555080600360008282546107d79190610adc565b90915550506040518181526000906001600160a01b03841690600080516020610b458339815191529060200161064e565b60006001600160a01b0383166108305760405162461bcd60e51b81526004016102dd90610a83565b3360009081526004602052604090205482111561088f5760405162461bcd60e51b815260206004820152601b60248201527f45524332303a20696e73756666696369656e742062616c616e6365000000000060448201526064016102dd565b33600090815260046020526040812080548492906108ae908490610adc565b90915550506001600160a01b038316600090815260046020526040812080548492906108db908490610aef565b90915550506040518281526001600160a01b038416903390600080516020610b458339815191529060200161033a565b600060208083528351808285015260005b818110156109385785810183015185820160400152820161091c565b506000604082860101526040601f19601f8301168501019250505092915050565b80356001600160a01b038116811461097057600080fd5b919050565b6000806040838503121561098857600080fd5b61099183610959565b946020939093013593505050565b6000806000606084860312156109b457600080fd5b6109bd84610959565b92506109cb60208501610959565b9150604084013590509250925092565b6000602082840312156109ed57600080fd5b5035919050565b600060208284031215610a0657600080fd5b610a0f82610959565b9392505050565b60008060408385031215610a2957600080fd5b610a3283610959565b9150610a4060208401610959565b90509250929050565b600181811c90821680610a5d57607f821691505b602082108103610a7d57634e487b7160e01b600052602260045260246000fd5b50919050565b60208082526023908201527f45524332303a207472616e7366657220746f20746865207a65726f206164647260408201526265737360e81b606082015260800190565b634e487b7160e01b600052601160045260246000fd5b8181038181111561034657610346610ac6565b8082018082111561034657610346610ac6565b60208082526022908201527f45524332303a206275726e20616d6f756e7420657863656564732062616c616e604082015261636560f01b60608201526080019056feddf252ad1be2c89b69c2b068fc378daa952ba7f163c4a11628f55a4df523b3efa26469706673582212203dfd7a524876e3dc46d6a9875485dfaab63eb8dbb2659341bc25e99a12eb9b9a64736f6c63430008140033",
  "devdoc": {
    "kind": "dev",
    "methods": {},
    "version": 1
  },
  "userdoc": {
    "kind": "user",
    "methods": {},
    "version": 1
  },
  "storageLayout": {
    "storage": [
      {
        "astId": 3,
        "contract": "contracts/ERC20WSY202330552841.sol:ERC20WSY202330552841",
        "label": "_name",
        "offset": 0,
        "slot": "0",
        "type": "t_string_storage"
      },
      {
        "astId": 5,
        "contract": "contracts/ERC20WSY202330552841.sol:ERC20WSY202330552841",
        "label": "_symbol",
        "offset": 0,
        "slot": "1",
        "type": "t_string_storage"
      },
      {
        "astId": 7,
        "contract": "contracts/ERC20WSY202330552841.sol:ERC20WSY202330552841",
        "label": "_decimals",
        "offset": 0,
        "slot": "2",
        "type": "t_uint8"
      },
      {
        "astId": 9,
        "contract": "contracts/ERC20WSY202330552841.sol:ERC20WSY202330552841",
        "label": "_totalSupply",
        "offset": 0,
        "slot": "3",
        "type": "t_uint256"
      },
      {
        "astId": 13,
        "contract": "contracts/ERC20WSY202330552841.sol:ERC20WSY202330552841",
        "label": "_balances",
        "offset": 0,
        "slot": "4",
        "type": "t_mapping(t_address,t_uint256)"
      },
      {
        "astId": 19,
        "contract": "contracts/ERC20WSY202330552841.sol:ERC20WSY202330552841",
        "label": "_allowances",
        "offset": 0,
        "slot": "5",
        "type": "t_mapping(t_address,t_mapping(t_address,t_uint256))"
      }
    ],
    "types": {
      "t_address": {
        "encoding": "inplace",
        "label": "address",
        "numberOfBytes": "20"
      },
      "t_mapping(t_address,t_mapping(t_address,t_uint256))": {
        "encoding": "mapping",
        "key": "t_address",
        "label": "mapping(address => mapping(address => uint256))",
        "numberOfBytes": "32",
        "value": "t_mapping(t_address,t_uint256)"
      },
      "t_mapping(t_address,t_uint256)": {
        "encoding": "mapping",
        "key": "t_address",
        "label": "mapping(address => uint256)",
        "numberOfBytes": "32",
        "value": "t_uint256"
      },
      "t_string_storage": {
        "encoding": "bytes",
        "label": "string",
        "numberOfBytes": "32"
      },
      "t_uint256": {
        "encoding": "inplace",
        "label": "uint256",
        "numberOfBytes": "32"
      },
      "t_uint8": {
        "encoding": "inplace",
        "label": "uint8",
        "numberOfBytes": "1"
      }
    }
  }
}